:020000040000FA
:08000000803102288731F22F44
:1003B800F10071088131F121813108006400800168
:1003C8000131890BE3290034623031008D008F013F
:1003D80091010230930092010800F0002E000F1ED8
:1003E800F629F729F229700822009A000800083037
:1003F80022009F0090309D0024309E0019309B0001
:100408009C0108008231F12282318131E821823158
:1004180082314C2282318131FB2182310800F30084
:10042800730821009E0093171313131413181D2A21
:100438001E2A1A2A0D08F1000C08F000080068307E
:100448002000EA006A08ED006708DF006608DE00A1
:100458006D30EA006A08E00000308231C022823143
:10046800080082310622823100302000E600883000
:10047800E700043082311322823171082000E9003C
:100488007008E800823123228231382A803102281C
:1004980021009401950196019901970198019A010B
:1004A8009B019C0101309D009E0122008D018E015F
:1004B8008F019001910192019301843021009300F2
:1004C8000800F4007408F2007208F3006F2A013083
:1004D800F2007208F4077408860087010108031DFA
:1004E800762A772A6B2A73087402F000F101F01B50
:1004F800F10308007408803AF50080307502031D86
:10050800872A0130730203188A2A8B2A972A7309CB
:10051800F5007409F600F50A0319F60A7508F300E0
:100528007608F400972A08002000A300A101A20180
:10053800B02A2008FB00FC017B08F2007C08F300CD
:100548007A08FD007D08F40083312B2382310130C5
:100558002000A1070030A23D21082307FB007B08EB
:10056800860087010108FC007C08A0002008031D04
:10057800BE2ABF2A9D2A08002000E3005F08E50084
:100588005E08E4002100A001A101DE2A6430E10038
:100598006108CE006008E2006208CF00630883317A
:1005A800C023823120004E082100A00720004F08F8
:1005B8002100A13D20006408840065088500120020
:1005C800031DE72AE82ACA2A210021082000DF00A3
:1005D800210020082000DE000800200097013E00CE
:1005E800E5012000960198013E00B901C401CF0140
:1005F800FF30B800EF30C300FD30CE00FF302000E0
:100608009200BE309300FF30910000308B1B013008
:10061800F0008B1355303D008F00AA308F000F106B
:1006280010303E00A0001030A6003D004B08E03915
:100638001138CB000C30C30055308F00AA308F0022
:100648000F14700C031C8B1303188B170800740805
:1006580003192F2B302B352B7408031D342B352B06
:100668003A2B72088131DC218331692B7408033EEF
:1006780086008701160001040319432B442B612BC4
:100688007408033E86008701403FF500413FF600AD
:10069800740A86008701403FF700413FF800780858
:1006A800803AF9007608803A7902031D5D2B7508B7
:1006B80077020318602B612B692B740A8600870167
:1006C8000130810741310318810A08002000AC007D
:1006D8006E1C6F2B702B782B2C08A7002708FA00AC
:1006E80024088231982283312000A61B7C2B7D2B85
:1006F800822B2608AB002508AA00842BAA01AB018F
:10070800A801A901982B2030F2000030F300200046
:100718002C08A7002708F40083312B2383310130EC
:100728002000A8070030A93D2908803AA7002B0817
:10073800803A2702031DA22B2A082802031CA52B96
:10074800A62B872B20006E18AA2BAB2BB32B2C08BB
:10075800A7002708FA002408823198228331200054
:10076800240882316522833120002A087007A400FA
:100778002B08713DA50008002000DD004E0886000A
:100788008701403FD000413FD10050088400510804
:1007980085001200253A031DD22BD32B792C4E0845
:1007A800860087010130810741310318810A210041
:1007B800A201A3012000EE01EF01FF302100A400F7
:1007C800FF30A50020004E0886008701403FD0007A
:1007D800413FD10050088400510885001200643A56
:1007E8000319F72BF82B092C4E0886008701403F88
:1007F800D000413FD1005008840051088500120004
:10080800693A031D082C092C442C4E0886008701E0
:100818000130810741310318810A4F08860087019A
:1008280001088400850102308107003FD000013FA4
:10083800D1005008D5005108D600890D893B890997
:10084800D700D800D900DA00DB00DC005508B0007A
:100858005608B1005708B2005808B3005908B40048
:100868005A08B5005B08B6005C08B7005D08863119
:100878008826833120003108CF003008CE009C2C18
:100888004E0886008701403FD000413FD100500804
:100898008400510885001200253A031D542C552C5C
:1008A8006E2C4E08860087010130810741310318FC
:1008B800810A2530F2000030F3005D08D0005008AE
:1008C800F40083312B23833101302000CE00003027
:1008D800CF009C2C4E0886008701013081074131EA
:1008E8000318810ACE01CF019C2C4E08860087018F
:1008F800403FD000413FD100500884005108850096
:100908000008D200D3015208F2005308F3005D0832
:10091800D4005408F40083312B23833120004E087F
:10092800860087010130810741310318810A682C4C
:100938000800F2012830860000308700473FF000A9
:10094800F01FA72CA82CC92C2000A809A909AA09BE
:10095800AB09AC09AD09AE09AF09A80A031DC72C3C
:10096800A90A031DC72CAA0A031DC72CAB0A031D1D
:10097800C72CAC0A031DC72CAD0A031DC72CAE0A31
:10098800031DC72CAF0AF201F20A2030860000309E
:100998008700473FF000F01FD22CD32CF22C200008
:1009A800A009A109A209A309A409A509A609A709DB
:1009B800A00A031DF22CA10A031DF22CA20A031D92
:1009C800F22CA30A031DF22CA40A031DF22CA50A7B
:1009D800031DF22CA60A031DF22CA70A20002008EA
:1009E80021042204230424042504260427040319CB
:1009F800FE2CFF2C522DF101F10A0E2DA035A10D70
:100A0800A20DA30DA40DA50DA60DA70D0130F00094
:100A18007008F107A71F112D122D022D27082F028C
:100A2800031D302D26082E02031D302D25082D020A
:100A3800031D302D24082C02031D302D23082B0202
:100A4800031D302D22082A02031D302D21082902FA
:100A5800031D302D20082802031C332D342D442D6E
:100A68002008A8022108A93B2208AA3B2308AB3B7F
:100A78002408AC3B2508AD3B2608AE3B2708AF3B16
:100A8800A736A60CA50CA40CA30CA20CA10CA00CB8
:100A98000130F102031D512D522D122D7208031938
:100AA800562D572D752DA809A909AA09AB09AC0916
:100AB800AD09AE09AF09A80A031D752DA90A031DC2
:100AC800752DAA0A031D752DAB0A031D752DAC0AD9
:100AD800031D752DAD0A031D752DAE0A031D752D59
:100AE800AF0A20002808A0002908A1002A08A200AF
:100AF8002B08A3002C08A4002D08A5002E08A6008A
:100B08002F08A7000800F201203086000030870077
:100B1800473FF000F01F912D922DB32D2000A00922
:100B2800A109A209A309A409A509A609A709A00A58
:100B3800031DB12DA10A031DB12DA20A031DB12D5C
:100B4800A30A031DB12DA40A031DB12DA50A031D77
:100B5800B12DA60A031DB12DA70AF201F20A283009
:100B6800860000308700473FF000F01FBC2DBD2DE8
:100B7800E02D2000A809A909AA09AB09AC09AD090B
:100B8800AE09AF09A80A031DDC2DA90A031DDC2D37
:100B9800AA0A031DDC2DAB0A031DDC2DAC0A031DBC
:100BA800DC2DAD0A031DDC2DAE0A031DDC2DAF0ABA
:100BB8000130F0007008F2067330860000308700BC
:100BC8000830F00000301E00F00BE72D2000200850
:100BD80021042204230424042504260427040319D9
:100BE800F62DF72D532EF101F10A062EA035A10D91
:100BF800A20DA30DA40DA50DA60DA70D0130F000A3
:100C08007008F107A71F092E0A2EFA2DF335F40DE7
:100C1800F50DF60DF70DF80DF90DFA0D27082F0251
:100C2800031D302E26082E02031D302E25082D0206
:100C3800031D302E24082C02031D302E23082B02FE
:100C4800031D302E22082A02031D302E21082902F6
:100C5800031D302E20082802031C332E342E452E67
:100C68002008A8022108A93B2208AA3B2308AB3B7D
:100C78002408AC3B2508AD3B2608AE3B2708AF3B14
:100C88007314A736A60CA50CA40CA30CA20CA10CDB
:100C9800A00C0130F102031D522E532E0A2E7208A9
:100CA8000319572E582E762EF309F409F509F6097B
:100CB800F709F809F909FA09F30A031D762EF40A67
:100CC800031D762EF50A031D762EF60A031D762ED1
:100CD800F70A031D762EF80A031D762EF90A031D5E
:100CE800762EFA0A73082000A0007408A10075087F
:100CF800A2007608A3007708A4007808A500790860
:100D0800A6007A08A70008002000BF003008C40029
:100D18003108C5003208C6003308C7003408C800C7
:100D28003508C9003608CA003708CB0044308600A9
:100D380000308700473FB800B81BA32EA52E01300E
:100D4800A62E00302000B900BA013908C2003A08BE
:100D5800C300420843040319B22EB32ED12EC4098E
:100D6800C509C609C709C809C909CA09CB09C40AF6
:100D7800031DD12EC50A031DD12EC60A031DD12E6F
:100D8800C70A031DD12EC80A031DD12EC90A031D87
:100D9800D12ECA0A031DD12ECB0A2100A51BD52EA0
:100DA800D62EDB2EFD302000EE05FF30EF052100AA
:100DB8002508803A2000B80080303802031DE72E4D
:100DC8000130210024020318EA2EEB2EF12E013007
:100DD8002000BD000030BE00F92E210025082000AB
:100DE800BE00210024082000BD00210023082000A7
:100DF800C100210022082000C00042084304031D4E
:100E0800062F072F0B2F6E1D0A2F0B2F0F2FFF30CA
:100E1800C007FF30C13D1F30CC000030CD0021009D
:100E2800C5017E2FFF302000CC07FF30CD3D0A30B2
:100E3800A000A101A201A301A401A501A601A70187
:100E48004408A8004508A9004608AA004708AB00BE
:100E58004808AC004908AD004A08AE004B08AF008E
:100E680084319D24863120002108F4002008F300F5
:100E780082317E2286317308303E2000B8004C084B
:100E8800A63E8600870138088100FF30BD07FF3085
:100E9800BE3DFF30C007FF30C13D0A30A000A101B0
:100EA800A201A301A401A501A601A7014408A80065
:100EB8004508A9004608AA004708AB004808AC0046
:100EC8004908AD004A08AE004B08AF0085318725B8
:100ED800863120002008C4002108C5002208C60069
:100EE8002308C7002408C8002508C9002608CA0026
:100EF8002708CB0020004D08803AB800803038021F
:100F0800031D882F01304C02031C8B2F8C2FB92F07
:100F180020004408450446044704480449044A0498
:100F28004B04031D982F992F162F3E08803AB800BE
:100F380080303802031DA22F01303D020318A52F6F
:100F4800A62F162F20004108803AB80080303802BA
:100F5800031DB02F01304002031CB32FB42FB92F4B
:100F68002000EE18B82FB92F162F2000420843048E
:100F7800031DBF2FC02FC42F6E1DC32FC42FDF2FFB
:100F8800FF30CC07FF30CD3D42084304031DCD2F71
:100F9800CE2FD32F2B30BB000030BC00D72F2D30E5
:100FA800BB000030BC003B08B8004C08A63E8600D9
:100FB8008701380881004C08A63EB8003808A4000C
:100FC8004108A6004008A5003F0883316A238631FE
:100FD80020002508B1002408B00008002000EE0118
:100FE800EF01A03084000030850026308131E221F5
:100FF800873120008231352A0A340D34253469348A
:04100800203400345C
:020000040001F9
:0A000E00EC3FFF3B9F3FFF3FFF3F29
:00000001FF
